{
  "contractName": "MmighVTUniswapMiningStorage",
  "abi": [
    {
      "inputs": [],
      "name": "LPToken",
      "outputs": [
        {
          "internalType": "contract ERC20",
          "name": "",
          "type": "address"
        }
      ],
      "stateMutability": "view",
      "type": "function"
    },
    {
      "inputs": [],
      "name": "MVTPerBlock",
      "outputs": [
        {
          "internalType": "uint256",
          "name": "",
          "type": "uint256"
        }
      ],
      "stateMutability": "view",
      "type": "function"
    },
    {
      "inputs": [],
      "name": "MVTToken",
      "outputs": [
        {
          "internalType": "contract ERC20",
          "name": "",
          "type": "address"
        }
      ],
      "stateMutability": "view",
      "type": "function"
    },
    {
      "inputs": [],
      "name": "admin",
      "outputs": [
        {
          "internalType": "address",
          "name": "",
          "type": "address"
        }
      ],
      "stateMutability": "view",
      "type": "function"
    },
    {
      "inputs": [],
      "name": "endMiningBlockNum",
      "outputs": [
        {
          "internalType": "uint256",
          "name": "",
          "type": "uint256"
        }
      ],
      "stateMutability": "view",
      "type": "function"
    },
    {
      "inputs": [],
      "name": "implementation",
      "outputs": [
        {
          "internalType": "address",
          "name": "",
          "type": "address"
        }
      ],
      "stateMutability": "view",
      "type": "function"
    },
    {
      "inputs": [],
      "name": "initiated",
      "outputs": [
        {
          "internalType": "bool",
          "name": "",
          "type": "bool"
        }
      ],
      "stateMutability": "view",
      "type": "function"
    },
    {
      "inputs": [],
      "name": "isMVTUniswapMining",
      "outputs": [
        {
          "internalType": "bool",
          "name": "",
          "type": "bool"
        }
      ],
      "stateMutability": "view",
      "type": "function"
    },
    {
      "inputs": [],
      "name": "miningStateBlock",
      "outputs": [
        {
          "internalType": "uint256",
          "name": "",
          "type": "uint256"
        }
      ],
      "stateMutability": "view",
      "type": "function"
    },
    {
      "inputs": [],
      "name": "miningStateIndex",
      "outputs": [
        {
          "internalType": "uint256",
          "name": "",
          "type": "uint256"
        }
      ],
      "stateMutability": "view",
      "type": "function"
    },
    {
      "inputs": [
        {
          "internalType": "address",
          "name": "",
          "type": "address"
        }
      ],
      "name": "stakeCount",
      "outputs": [
        {
          "internalType": "uint256",
          "name": "",
          "type": "uint256"
        }
      ],
      "stateMutability": "view",
      "type": "function"
    },
    {
      "inputs": [
        {
          "internalType": "address",
          "name": "",
          "type": "address"
        }
      ],
      "name": "stakeHolders",
      "outputs": [
        {
          "internalType": "uint256",
          "name": "",
          "type": "uint256"
        }
      ],
      "stateMutability": "view",
      "type": "function"
    },
    {
      "inputs": [],
      "name": "stakeInitialIndex",
      "outputs": [
        {
          "internalType": "uint256",
          "name": "",
          "type": "uint256"
        }
      ],
      "stateMutability": "view",
      "type": "function"
    },
    {
      "inputs": [
        {
          "internalType": "address",
          "name": "",
          "type": "address"
        }
      ],
      "name": "stakerClaimed",
      "outputs": [
        {
          "internalType": "uint256",
          "name": "",
          "type": "uint256"
        }
      ],
      "stateMutability": "view",
      "type": "function"
    },
    {
      "inputs": [
        {
          "internalType": "address",
          "name": "",
          "type": "address"
        }
      ],
      "name": "stakerIndexes",
      "outputs": [
        {
          "internalType": "uint256",
          "name": "",
          "type": "uint256"
        }
      ],
      "stateMutability": "view",
      "type": "function"
    },
    {
      "inputs": [
        {
          "internalType": "address",
          "name": "",
          "type": "address"
        }
      ],
      "name": "stakerPower",
      "outputs": [
        {
          "internalType": "uint256",
          "name": "",
          "type": "uint256"
        }
      ],
      "stateMutability": "view",
      "type": "function"
    },
    {
      "inputs": [
        {
          "internalType": "address",
          "name": "",
          "type": "address"
        },
        {
          "internalType": "uint256",
          "name": "",
          "type": "uint256"
        }
      ],
      "name": "stakes",
      "outputs": [
        {
          "internalType": "uint256",
          "name": "amount",
          "type": "uint256"
        },
        {
          "internalType": "uint256",
          "name": "lockedUntil",
          "type": "uint256"
        },
        {
          "internalType": "uint256",
          "name": "lockPeriod",
          "type": "uint256"
        },
        {
          "internalType": "uint256",
          "name": "stakePower",
          "type": "uint256"
        },
        {
          "internalType": "bool",
          "name": "exists",
          "type": "bool"
        }
      ],
      "stateMutability": "view",
      "type": "function"
    },
    {
      "inputs": [],
      "name": "startMiningBlockNum",
      "outputs": [
        {
          "internalType": "uint256",
          "name": "",
          "type": "uint256"
        }
      ],
      "stateMutability": "view",
      "type": "function"
    },
    {
      "inputs": [],
      "name": "totalClaimed",
      "outputs": [
        {
          "internalType": "uint256",
          "name": "",
          "type": "uint256"
        }
      ],
      "stateMutability": "view",
      "type": "function"
    },
    {
      "inputs": [],
      "name": "totalMiningBlockNum",
      "outputs": [
        {
          "internalType": "uint256",
          "name": "",
          "type": "uint256"
        }
      ],
      "stateMutability": "view",
      "type": "function"
    },
    {
      "inputs": [],
      "name": "totalStaked",
      "outputs": [
        {
          "internalType": "uint256",
          "name": "",
          "type": "uint256"
        }
      ],
      "stateMutability": "view",
      "type": "function"
    },
    {
      "inputs": [],
      "name": "totalStakedPower",
      "outputs": [
        {
          "internalType": "uint256",
          "name": "",
          "type": "uint256"
        }
      ],
      "stateMutability": "view",
      "type": "function"
    }
  ],
  "bytecode": "0x608060405260008060006101000a81548160ff021916908315150217905550600060045562249f00600555600554600454016006556701280f39a34855556007556004546008556ec097ce7bc90715b34b9f100000000060095534801561006557600080fd5b506107da806100756000396000f3fe608060405234801561001057600080fd5b506004361061015f576000357c01000000000000000000000000000000000000000000000000000000009004806386b697db116100d5578063d54ad2a111610099578063d54ad2a114610460578063dd4785f51461047e578063e26ff10a146104d6578063e32a3b521461052e578063e8cc11591461054c578063f851a440146105a45761015f565b806386b697db146103c65780639f118536146103e4578063ad2a04e014610404578063adcec9c514610422578063c285c820146104425761015f565b806333060d901161012757806333060d901461026057806352d10e8e146102b8578063584b62a1146102d65780635c60da1b146103565780636456e66d1461038a578063817b1cd2146103a85761015f565b8063011cee36146101645780631c51c691146101985780631edb0d77146101cc5780631fb6ef1a146101ea5780632604e18e14610208575b600080fd5b61016c6105d8565b604051808273ffffffffffffffffffffffffffffffffffffffff16815260200191505060405180910390f35b6101a06105fe565b604051808273ffffffffffffffffffffffffffffffffffffffff16815260200191505060405180910390f35b6101d4610624565b6040518082815260200191505060405180910390f35b6101f261062a565b6040518082815260200191505060405180910390f35b61024a6004803603602081101561021e57600080fd5b81019080803573ffffffffffffffffffffffffffffffffffffffff169060200190929190505050610630565b6040518082815260200191505060405180910390f35b6102a26004803603602081101561027657600080fd5b81019080803573ffffffffffffffffffffffffffffffffffffffff169060200190929190505050610648565b6040518082815260200191505060405180910390f35b6102c0610660565b6040518082815260200191505060405180910390f35b610322600480360360408110156102ec57600080fd5b81019080803573ffffffffffffffffffffffffffffffffffffffff16906020019092919080359060200190929190505050610666565b6040518086815260200185815260200184815260200183815260200182151581526020019550505050505060405180910390f35b61035e6106c3565b604051808273ffffffffffffffffffffffffffffffffffffffff16815260200191505060405180910390f35b6103926106e9565b6040518082815260200191505060405180910390f35b6103b06106ef565b6040518082815260200191505060405180910390f35b6103ce6106f5565b6040518082815260200191505060405180910390f35b6103ec6106fb565b60405180821515815260200191505060405180910390f35b61040c61070c565b6040518082815260200191505060405180910390f35b61042a610712565b60405180821515815260200191505060405180910390f35b61044a610717565b6040518082815260200191505060405180910390f35b61046861072a565b6040518082815260200191505060405180910390f35b6104c06004803603602081101561049457600080fd5b81019080803573ffffffffffffffffffffffffffffffffffffffff169060200190929190505050610730565b6040518082815260200191505060405180910390f35b610518600480360360208110156104ec57600080fd5b81019080803573ffffffffffffffffffffffffffffffffffffffff169060200190929190505050610748565b6040518082815260200191505060405180910390f35b610536610760565b6040518082815260200191505060405180910390f35b61058e6004803603602081101561056257600080fd5b81019080803573ffffffffffffffffffffffffffffffffffffffff169060200190929190505050610766565b6040518082815260200191505060405180910390f35b6105ac61077e565b604051808273ffffffffffffffffffffffffffffffffffffffff16815260200191505060405180910390f35b600260009054906101000a900473ffffffffffffffffffffffffffffffffffffffff1681565b600360009054906101000a900473ffffffffffffffffffffffffffffffffffffffff1681565b60075481565b60055481565b60116020528060005260406000206000915090505481565b600b6020528060005260406000206000915090505481565b60065481565b600a602052816000526040600020818154811061067f57fe5b9060005260206000209060050201600091509150508060000154908060010154908060020154908060030154908060040160009054906101000a900460ff16905085565b600160009054906101000a900473ffffffffffffffffffffffffffffffffffffffff1681565b60085481565b600c5481565b60095481565b60008054906101000a900460ff1681565b60045481565b600181565b6ec097ce7bc90715b34b9f100000000081565b60125481565b60106020528060005260406000206000915090505481565b600e6020528060005260406000206000915090505481565b600d5481565b600f6020528060005260406000206000915090505481565b600060019054906101000a900473ffffffffffffffffffffffffffffffffffffffff168156fea26469706673582212209e9e2f112dbbb00d2fb7ef72061ef031aaa3b0818f48d641c3c2508605c1c0a564736f6c634300060c0033",
  "immutableReferences": {},
  "source": "//SPDX-License-Identifier: MIT\r\n\r\nimport \"@openzeppelin/contracts/token/ERC20/ERC20.sol\";\r\n\r\npragma solidity ^0.6.0;\r\n\r\ncontract OwnableStorage{\r\n    address internal _owner;\r\n}\r\n \r\ncontract PausableStorage{\r\n    bool internal _paused;\r\n}\r\n\r\ncontract MmighVTUniswapMiningStorage {\r\n  using SafeMath for uint256;\r\n\r\n  bool constant public isMVTUniswapMining = true;\r\n  bool public initiated = false;\r\n\r\n  // proxy storage\r\n  address public admin;\r\n  address public implementation;\r\n  \r\n  ERC20 public LPToken;\r\n  ERC20 public MVTToken;\r\n  \r\n  uint public startMiningBlockNum = 0;\r\n  uint public totalMiningBlockNum = 2400000;\r\n  uint public endMiningBlockNum = startMiningBlockNum + totalMiningBlockNum;\r\n  uint public MVTPerBlock = 83333333333333333;\r\n  \r\n  uint public constant stakeInitialIndex = 1e36;\r\n  \r\n  uint public miningStateBlock = startMiningBlockNum;\r\n  uint public miningStateIndex = stakeInitialIndex;\r\n\r\n\r\n  \r\n  struct Stake{\r\n    uint amount;\r\n    uint lockedUntil;\r\n    uint lockPeriod;\r\n    uint stakePower;\r\n    bool exists;\r\n  }\r\n\r\n  mapping (address => Stake[]) public stakes;\r\n  mapping (address => uint) public stakeCount;\r\n  uint public totalStaked;\r\n  uint public totalStakedPower;\r\n\r\n  mapping (address => uint) public stakeHolders;\r\n  mapping (address => uint) public stakerPower;\r\n  mapping (address => uint) public stakerIndexes;\r\n  mapping (address => uint) public stakerClaimed;\r\n  uint public totalClaimed;\r\n\r\n}",
  "sourcePath": "C:/Users/Josh Erickson/documents/github/lpstaking/contracts/MVTUniswapMiningStorage.sol",
  "compiler": {
    "name": "solc",
    "version": "0.6.12+commit.27d51765.Emscripten.clang"
  },
  "schemaVersion": "3.3.4",
  "updatedAt": "2021-03-02T01:41:29.365Z",
  "devdoc": {
    "kind": "dev",
    "methods": {},
    "version": 1
  },
  "userdoc": {
    "kind": "user",
    "methods": {},
    "version": 1
  }
}