{
  "contractName": "MVTUniswapMining",
  "abi": [
    {
      "anonymous": false,
      "inputs": [
        {
          "indexed": true,
          "internalType": "address",
          "name": "user",
          "type": "address"
        },
        {
          "indexed": false,
          "internalType": "uint256",
          "name": "amount",
          "type": "uint256"
        },
        {
          "indexed": false,
          "internalType": "uint256",
          "name": "total",
          "type": "uint256"
        }
      ],
      "name": "ClaimedMVT",
      "type": "event"
    },
    {
      "anonymous": false,
      "inputs": [
        {
          "indexed": true,
          "internalType": "address",
          "name": "previousOwner",
          "type": "address"
        },
        {
          "indexed": true,
          "internalType": "address",
          "name": "newOwner",
          "type": "address"
        }
      ],
      "name": "OwnershipTransferred",
      "type": "event"
    },
    {
      "anonymous": false,
      "inputs": [
        {
          "indexed": false,
          "internalType": "address",
          "name": "account",
          "type": "address"
        }
      ],
      "name": "Paused",
      "type": "event"
    },
    {
      "anonymous": false,
      "inputs": [
        {
          "indexed": true,
          "internalType": "address",
          "name": "user",
          "type": "address"
        },
        {
          "indexed": false,
          "internalType": "uint256",
          "name": "amount",
          "type": "uint256"
        },
        {
          "indexed": false,
          "internalType": "uint256",
          "name": "total",
          "type": "uint256"
        },
        {
          "indexed": false,
          "internalType": "uint256",
          "name": "lockedUntil",
          "type": "uint256"
        }
      ],
      "name": "Staked",
      "type": "event"
    },
    {
      "anonymous": false,
      "inputs": [
        {
          "indexed": false,
          "internalType": "address",
          "name": "account",
          "type": "address"
        }
      ],
      "name": "Unpaused",
      "type": "event"
    },
    {
      "anonymous": false,
      "inputs": [
        {
          "indexed": true,
          "internalType": "address",
          "name": "user",
          "type": "address"
        },
        {
          "indexed": false,
          "internalType": "uint256",
          "name": "amount",
          "type": "uint256"
        },
        {
          "indexed": false,
          "internalType": "uint256",
          "name": "total",
          "type": "uint256"
        }
      ],
      "name": "Unstaked",
      "type": "event"
    },
    {
      "inputs": [],
      "name": "LPToken",
      "outputs": [
        {
          "internalType": "contract ERC20",
          "name": "",
          "type": "address"
        }
      ],
      "stateMutability": "view",
      "type": "function",
      "constant": true
    },
    {
      "inputs": [],
      "name": "MVTPerBlock",
      "outputs": [
        {
          "internalType": "uint256",
          "name": "",
          "type": "uint256"
        }
      ],
      "stateMutability": "view",
      "type": "function",
      "constant": true
    },
    {
      "inputs": [],
      "name": "MVTToken",
      "outputs": [
        {
          "internalType": "contract ERC20",
          "name": "",
          "type": "address"
        }
      ],
      "stateMutability": "view",
      "type": "function",
      "constant": true
    },
    {
      "inputs": [],
      "name": "admin",
      "outputs": [
        {
          "internalType": "address",
          "name": "",
          "type": "address"
        }
      ],
      "stateMutability": "view",
      "type": "function",
      "constant": true
    },
    {
      "inputs": [],
      "name": "endMiningBlockNum",
      "outputs": [
        {
          "internalType": "uint256",
          "name": "",
          "type": "uint256"
        }
      ],
      "stateMutability": "view",
      "type": "function",
      "constant": true
    },
    {
      "inputs": [],
      "name": "implementation",
      "outputs": [
        {
          "internalType": "address",
          "name": "",
          "type": "address"
        }
      ],
      "stateMutability": "view",
      "type": "function",
      "constant": true
    },
    {
      "inputs": [],
      "name": "initiated",
      "outputs": [
        {
          "internalType": "bool",
          "name": "",
          "type": "bool"
        }
      ],
      "stateMutability": "view",
      "type": "function",
      "constant": true
    },
    {
      "inputs": [],
      "name": "isMVTUniswapMining",
      "outputs": [
        {
          "internalType": "bool",
          "name": "",
          "type": "bool"
        }
      ],
      "stateMutability": "view",
      "type": "function",
      "constant": true
    },
    {
      "inputs": [],
      "name": "miningStateBlock",
      "outputs": [
        {
          "internalType": "uint256",
          "name": "",
          "type": "uint256"
        }
      ],
      "stateMutability": "view",
      "type": "function",
      "constant": true
    },
    {
      "inputs": [],
      "name": "miningStateIndex",
      "outputs": [
        {
          "internalType": "uint256",
          "name": "",
          "type": "uint256"
        }
      ],
      "stateMutability": "view",
      "type": "function",
      "constant": true
    },
    {
      "inputs": [],
      "name": "owner",
      "outputs": [
        {
          "internalType": "address",
          "name": "",
          "type": "address"
        }
      ],
      "stateMutability": "view",
      "type": "function",
      "constant": true
    },
    {
      "inputs": [],
      "name": "paused",
      "outputs": [
        {
          "internalType": "bool",
          "name": "",
          "type": "bool"
        }
      ],
      "stateMutability": "view",
      "type": "function",
      "constant": true
    },
    {
      "inputs": [],
      "name": "renounceOwnership",
      "outputs": [],
      "stateMutability": "nonpayable",
      "type": "function"
    },
    {
      "inputs": [
        {
          "internalType": "address",
          "name": "",
          "type": "address"
        }
      ],
      "name": "stakeCount",
      "outputs": [
        {
          "internalType": "uint256",
          "name": "",
          "type": "uint256"
        }
      ],
      "stateMutability": "view",
      "type": "function",
      "constant": true
    },
    {
      "inputs": [
        {
          "internalType": "address",
          "name": "",
          "type": "address"
        }
      ],
      "name": "stakeHolders",
      "outputs": [
        {
          "internalType": "uint256",
          "name": "",
          "type": "uint256"
        }
      ],
      "stateMutability": "view",
      "type": "function",
      "constant": true
    },
    {
      "inputs": [],
      "name": "stakeInitialIndex",
      "outputs": [
        {
          "internalType": "uint256",
          "name": "",
          "type": "uint256"
        }
      ],
      "stateMutability": "view",
      "type": "function",
      "constant": true
    },
    {
      "inputs": [
        {
          "internalType": "address",
          "name": "",
          "type": "address"
        }
      ],
      "name": "stakerClaimed",
      "outputs": [
        {
          "internalType": "uint256",
          "name": "",
          "type": "uint256"
        }
      ],
      "stateMutability": "view",
      "type": "function",
      "constant": true
    },
    {
      "inputs": [
        {
          "internalType": "address",
          "name": "",
          "type": "address"
        }
      ],
      "name": "stakerIndexes",
      "outputs": [
        {
          "internalType": "uint256",
          "name": "",
          "type": "uint256"
        }
      ],
      "stateMutability": "view",
      "type": "function",
      "constant": true
    },
    {
      "inputs": [
        {
          "internalType": "address",
          "name": "",
          "type": "address"
        }
      ],
      "name": "stakerPower",
      "outputs": [
        {
          "internalType": "uint256",
          "name": "",
          "type": "uint256"
        }
      ],
      "stateMutability": "view",
      "type": "function",
      "constant": true
    },
    {
      "inputs": [
        {
          "internalType": "address",
          "name": "",
          "type": "address"
        },
        {
          "internalType": "uint256",
          "name": "",
          "type": "uint256"
        }
      ],
      "name": "stakes",
      "outputs": [
        {
          "internalType": "uint256",
          "name": "amount",
          "type": "uint256"
        },
        {
          "internalType": "uint256",
          "name": "lockedUntil",
          "type": "uint256"
        },
        {
          "internalType": "uint256",
          "name": "lockPeriod",
          "type": "uint256"
        },
        {
          "internalType": "uint256",
          "name": "stakePower",
          "type": "uint256"
        },
        {
          "internalType": "bool",
          "name": "exists",
          "type": "bool"
        }
      ],
      "stateMutability": "view",
      "type": "function",
      "constant": true
    },
    {
      "inputs": [],
      "name": "startMiningBlockNum",
      "outputs": [
        {
          "internalType": "uint256",
          "name": "",
          "type": "uint256"
        }
      ],
      "stateMutability": "view",
      "type": "function",
      "constant": true
    },
    {
      "inputs": [],
      "name": "totalClaimed",
      "outputs": [
        {
          "internalType": "uint256",
          "name": "",
          "type": "uint256"
        }
      ],
      "stateMutability": "view",
      "type": "function",
      "constant": true
    },
    {
      "inputs": [],
      "name": "totalMiningBlockNum",
      "outputs": [
        {
          "internalType": "uint256",
          "name": "",
          "type": "uint256"
        }
      ],
      "stateMutability": "view",
      "type": "function",
      "constant": true
    },
    {
      "inputs": [],
      "name": "totalStaked",
      "outputs": [
        {
          "internalType": "uint256",
          "name": "",
          "type": "uint256"
        }
      ],
      "stateMutability": "view",
      "type": "function",
      "constant": true
    },
    {
      "inputs": [],
      "name": "totalStakedPower",
      "outputs": [
        {
          "internalType": "uint256",
          "name": "",
          "type": "uint256"
        }
      ],
      "stateMutability": "view",
      "type": "function",
      "constant": true
    },
    {
      "inputs": [
        {
          "internalType": "address",
          "name": "newOwner",
          "type": "address"
        }
      ],
      "name": "transferOwnership",
      "outputs": [],
      "stateMutability": "nonpayable",
      "type": "function"
    },
    {
      "inputs": [
        {
          "internalType": "uint256",
          "name": "_startMiningBlocknum",
          "type": "uint256"
        },
        {
          "internalType": "uint256",
          "name": "_totalMiningBlockNum",
          "type": "uint256"
        },
        {
          "internalType": "uint256",
          "name": "_MVTPerBlock",
          "type": "uint256"
        },
        {
          "internalType": "contract ERC20",
          "name": "_MVT",
          "type": "address"
        },
        {
          "internalType": "contract ERC20",
          "name": "_lp",
          "type": "address"
        }
      ],
      "name": "initiate",
      "outputs": [],
      "stateMutability": "nonpayable",
      "type": "function"
    },
    {
      "inputs": [
        {
          "internalType": "uint256",
          "name": "_amount",
          "type": "uint256"
        },
        {
          "internalType": "uint256",
          "name": "_locked",
          "type": "uint256"
        }
      ],
      "name": "stake",
      "outputs": [],
      "stateMutability": "nonpayable",
      "type": "function"
    },
    {
      "inputs": [
        {
          "internalType": "uint256",
          "name": "_index",
          "type": "uint256"
        },
        {
          "internalType": "uint256",
          "name": "_amount",
          "type": "uint256"
        }
      ],
      "name": "unstake",
      "outputs": [],
      "stateMutability": "nonpayable",
      "type": "function"
    },
    {
      "inputs": [
        {
          "internalType": "uint256",
          "name": "_blockNum",
          "type": "uint256"
        }
      ],
      "name": "getMiningState",
      "outputs": [
        {
          "internalType": "uint256",
          "name": "",
          "type": "uint256"
        },
        {
          "internalType": "uint256",
          "name": "",
          "type": "uint256"
        }
      ],
      "stateMutability": "view",
      "type": "function",
      "constant": true
    },
    {
      "inputs": [],
      "name": "claimMVT",
      "outputs": [],
      "stateMutability": "nonpayable",
      "type": "function"
    },
    {
      "inputs": [
        {
          "internalType": "address",
          "name": "_address",
          "type": "address"
        }
      ],
      "name": "claimableMVT",
      "outputs": [
        {
          "internalType": "uint256",
          "name": "",
          "type": "uint256"
        }
      ],
      "stateMutability": "view",
      "type": "function",
      "constant": true
    },
    {
      "inputs": [],
      "name": "doNothing",
      "outputs": [],
      "stateMutability": "nonpayable",
      "type": "function"
    },
    {
      "inputs": [],
      "name": "pause",
      "outputs": [],
      "stateMutability": "nonpayable",
      "type": "function"
    },
    {
      "inputs": [],
      "name": "unpause",
      "outputs": [],
      "stateMutability": "nonpayable",
      "type": "function"
    },
    {
      "inputs": [
        {
          "internalType": "address",
          "name": "_to",
          "type": "address"
        },
        {
          "internalType": "uint256",
          "name": "_amount",
          "type": "uint256"
        }
      ],
      "name": "sendMVT",
      "outputs": [],
      "stateMutability": "nonpayable",
      "type": "function"
    }
  ],
  "bytecode": "0x608060405260008060156101000a81548160ff021916908315150217905550600060055562249f00600655600654600554016007556701280f39a34855556008556005546009556ec097ce7bc90715b34b9f1000000000600a553480156200006657600080fd5b5060006200008262000140640100000000026401000000009004565b9050806000806101000a81548173ffffffffffffffffffffffffffffffffffffffff021916908373ffffffffffffffffffffffffffffffffffffffff1602179055508073ffffffffffffffffffffffffffffffffffffffff16600073ffffffffffffffffffffffffffffffffffffffff167f8be0079c531659141344cd1fd0a4f28419497f9722a3daafe3b4186f6b6457e060405160405180910390a35060008060146101000a81548160ff02191690831515021790555062000148565b600033905090565b61353980620001586000396000f3fe608060405234801561001057600080fd5b5060043610610239576000357c01000000000000000000000000000000000000000000000000000000009004806386b697db11610142578063c285c820116100ca578063e32a3b5211610099578063e32a3b52146105e5578063e8cc115914610603578063eb190cff14610633578063f2fde38b14610663578063f851a4401461067f57610239565b8063c285c82014610549578063d54ad2a114610567578063dd4785f514610585578063e26ff10a146105b557610239565b80639e2c8a5b116101115780639e2c8a5b146104c95780639f118536146104e5578063a3be778414610503578063ad2a04e01461050d578063adcec9c51461052b57610239565b806386b697db1461044057806389c843951461045e5780638da5cb5b1461048f57806395bc9431146104ad57610239565b806352d10e8e116101c55780636456e66d116101945780636456e66d146103d4578063715018a6146103f25780637b0472f0146103fc578063817b1cd2146104185780638456cb591461043657610239565b806352d10e8e14610346578063584b62a1146103645780635c60da1b146103985780635c975abb146103b657610239565b80632604e18e1161020c5780632604e18e146102b65780632912800f146102e65780632f576f201461030257806333060d901461030c5780633f4ba83a1461033c57610239565b8063011cee361461023e5780631c51c6911461025c5780631edb0d771461027a5780631fb6ef1a14610298575b600080fd5b61024661069d565b60405161025391906130b9565b60405180910390f35b6102646106c3565b60405161027191906130b9565b60405180910390f35b6102826106e9565b60405161028f9190613314565b60405180910390f35b6102a06106ef565b6040516102ad9190613314565b60405180910390f35b6102d060048036038101906102cb91906128e9565b6106f5565b6040516102dd9190613314565b60405180910390f35b61030060048036038101906102fb9190612a05565b61070d565b005b61030a610a35565b005b610326600480360381019061032191906128e9565b610a37565b6040516103339190613314565b60405180910390f35b610344610a4f565b005b61034e610ad5565b60405161035b9190613314565b60405180910390f35b61037e60048036038101906103799190612912565b610adb565b60405161038f95949392919061338f565b60405180910390f35b6103a0610b38565b6040516103ad9190612fdf565b60405180910390f35b6103be610b5e565b6040516103cb919061309e565b60405180910390f35b6103dc610b74565b6040516103e99190613314565b60405180910390f35b6103fa610b7a565b005b610416600480360381019061041191906129c9565b610cb4565b005b610420610d0b565b60405161042d9190613314565b60405180910390f35b61043e610d11565b005b610448610d97565b6040516104559190613314565b60405180910390f35b61047860048036038101906104739190612977565b610d9d565b60405161048692919061332f565b60405180910390f35b610497610eb0565b6040516104a49190612fdf565b60405180910390f35b6104c760048036038101906104c29190612912565b610ed9565b005b6104e360048036038101906104de91906129c9565b611025565b005b6104ed6111c7565b6040516104fa919061309e565b60405180910390f35b61050b6111da565b005b610515611495565b6040516105229190613314565b60405180910390f35b61053361149b565b604051610540919061309e565b60405180910390f35b6105516114a0565b60405161055e9190613314565b60405180910390f35b61056f6114b3565b60405161057c9190613314565b60405180910390f35b61059f600480360381019061059a91906128e9565b6114b9565b6040516105ac9190613314565b60405180910390f35b6105cf60048036038101906105ca91906128e9565b6114d1565b6040516105dc9190613314565b60405180910390f35b6105ed6114e9565b6040516105fa9190613314565b60405180910390f35b61061d600480360381019061061891906128e9565b6114ef565b60405161062a9190613314565b60405180910390f35b61064d600480360381019061064891906128e9565b611507565b60405161065a9190613314565b60405180910390f35b61067d600480360381019061067891906128e9565b611619565b005b6106876117c2565b6040516106949190612fdf565b60405180910390f35b600360009054906101000a900473ffffffffffffffffffffffffffffffffffffffff1681565b600460009054906101000a900473ffffffffffffffffffffffffffffffffffffffff1681565b60085481565b60065481565b60126020528060005260406000206000915090505481565b6107156117e8565b73ffffffffffffffffffffffffffffffffffffffff16610733610eb0565b73ffffffffffffffffffffffffffffffffffffffff1614610789576040517f08c379a000000000000000000000000000000000000000000000000000000000815260040161078090613294565b60405180910390fd5b60001515600060159054906101000a900460ff161515146107df576040517f08c379a00000000000000000000000000000000000000000000000000000000081526004016107d690613234565b60405180910390fd5b6001600060156101000a81548160ff021916908315150217905550606484101561083e576040517f08c379a0000000000000000000000000000000000000000000000000000000008152600401610835906132f4565b60405180910390fd5b600085141561084b574394505b8173ffffffffffffffffffffffffffffffffffffffff166318160ddd6040518163ffffffff167c010000000000000000000000000000000000000000000000000000000002815260040160206040518083038186803b1580156108ad57600080fd5b505afa1580156108c1573d6000803e3d6000fd5b505050506040513d601f19601f820116820180604052508101906108e591906129a0565b508073ffffffffffffffffffffffffffffffffffffffff166318160ddd6040518163ffffffff167c010000000000000000000000000000000000000000000000000000000002815260040160206040518083038186803b15801561094857600080fd5b505afa15801561095c573d6000803e3d6000fd5b505050506040513d601f19601f8201168201806040525081019061098091906129a0565b508460058190555083600681905550600654600554016007819055506005546009819055508260088190555081600460006101000a81548173ffffffffffffffffffffffffffffffffffffffff021916908373ffffffffffffffffffffffffffffffffffffffff16021790555080600360006101000a81548173ffffffffffffffffffffffffffffffffffffffff021916908373ffffffffffffffffffffffffffffffffffffffff1602179055505050505050565b565b600c6020528060005260406000206000915090505481565b610a576117e8565b73ffffffffffffffffffffffffffffffffffffffff16610a75610eb0565b73ffffffffffffffffffffffffffffffffffffffff1614610acb576040517f08c379a0000000000000000000000000000000000000000000000000000000008152600401610ac290613294565b60405180910390fd5b610ad36117f0565b565b60075481565b600b6020528160005260406000208181548110610af457fe5b9060005260206000209060050201600091509150508060000154908060010154908060020154908060030154908060040160009054906101000a900460ff16905085565b600260009054906101000a900473ffffffffffffffffffffffffffffffffffffffff1681565b60008060149054906101000a900460ff16905090565b60095481565b610b826117e8565b73ffffffffffffffffffffffffffffffffffffffff16610ba0610eb0565b73ffffffffffffffffffffffffffffffffffffffff1614610bf6576040517f08c379a0000000000000000000000000000000000000000000000000000000008152600401610bed90613294565b60405180910390fd5b600073ffffffffffffffffffffffffffffffffffffffff1660008054906101000a900473ffffffffffffffffffffffffffffffffffffffff1673ffffffffffffffffffffffffffffffffffffffff167f8be0079c531659141344cd1fd0a4f28419497f9722a3daafe3b4186f6b6457e060405160405180910390a360008060006101000a81548173ffffffffffffffffffffffffffffffffffffffff021916908373ffffffffffffffffffffffffffffffffffffffff160217905550565b610cbc610b5e565b15610cfc576040517f08c379a0000000000000000000000000000000000000000000000000000000008152600401610cf3906131d4565b60405180910390fd5b610d07338383611891565b5050565b600d5481565b610d196117e8565b73ffffffffffffffffffffffffffffffffffffffff16610d37610eb0565b73ffffffffffffffffffffffffffffffffffffffff1614610d8d576040517f08c379a0000000000000000000000000000000000000000000000000000000008152600401610d8490613294565b60405180910390fd5b610d95611e6a565b565b600a5481565b600080600954831015610de5576040517f08c379a0000000000000000000000000000000000000000000000000000000008152600401610ddc906132d4565b60405180910390fd5b6000839050600754841115610dfa5760075490505b6000610e1160095483611f0d90919063ffffffff16565b9050600060095490506000600a549050600083118015610e3357506000600d54115b15610ea1576000610e4f60085485611f5d90919063ffffffff16565b90506000610e82600e54610e74670de0b6b3a764000085611f5d90919063ffffffff16565b611fcd90919063ffffffff16565b9050610e9981600a5461202390919063ffffffff16565b925085935050505b80829550955050505050915091565b60008060009054906101000a900473ffffffffffffffffffffffffffffffffffffffff16905090565b610ee16117e8565b73ffffffffffffffffffffffffffffffffffffffff16610eff610eb0565b73ffffffffffffffffffffffffffffffffffffffff1614610f55576040517f08c379a0000000000000000000000000000000000000000000000000000000008152600401610f4c90613294565b60405180910390fd5b600460009054906101000a900473ffffffffffffffffffffffffffffffffffffffff1673ffffffffffffffffffffffffffffffffffffffff1663a9059cbb83836040518363ffffffff167c0100000000000000000000000000000000000000000000000000000000028152600401610fce929190613075565b602060405180830381600087803b158015610fe857600080fd5b505af1158015610ffc573d6000803e3d6000fd5b505050506040513d601f19601f82011682018060405250810190611020919061294e565b505050565b61102d610b5e565b1561106d576040517f08c379a0000000000000000000000000000000000000000000000000000000008152600401611064906131d4565b60405180910390fd5b60011515600b60003373ffffffffffffffffffffffffffffffffffffffff1673ffffffffffffffffffffffffffffffffffffffff16815260200190815260200160002083815481106110bb57fe5b906000526020600020906005020160040160009054906101000a900460ff1615151461111c576040517f08c379a0000000000000000000000000000000000000000000000000000000008152600401611113906132b4565b60405180910390fd5b80600b60003373ffffffffffffffffffffffffffffffffffffffff1673ffffffffffffffffffffffffffffffffffffffff168152602001908152602001600020838154811061116757fe5b906000526020600020906005020160000154146111b9576040517f08c379a00000000000000000000000000000000000000000000000000000000081526004016111b090613214565b60405180910390fd5b6111c33383612078565b5050565b600060159054906101000a900460ff1681565b6111e2610b5e565b15611222576040517f08c379a0000000000000000000000000000000000000000000000000000000008152600401611219906131d4565b60405180910390fd5b61122a612619565b600061123533611507565b9050600a54601160003373ffffffffffffffffffffffffffffffffffffffff1673ffffffffffffffffffffffffffffffffffffffff168152602001908152602001600020819055506000811115611492576112d881601260003373ffffffffffffffffffffffffffffffffffffffff1673ffffffffffffffffffffffffffffffffffffffff1681526020019081526020016000205461202390919063ffffffff16565b601260003373ffffffffffffffffffffffffffffffffffffffff1673ffffffffffffffffffffffffffffffffffffffff168152602001908152602001600020819055506113308160135461202390919063ffffffff16565b601381905550600460009054906101000a900473ffffffffffffffffffffffffffffffffffffffff1673ffffffffffffffffffffffffffffffffffffffff1663a9059cbb33836040518363ffffffff167c01000000000000000000000000000000000000000000000000000000000281526004016113af929190613015565b602060405180830381600087803b1580156113c957600080fd5b505af11580156113dd573d6000803e3d6000fd5b505050506040513d601f19601f82011682018060405250810190611401919061294e565b503373ffffffffffffffffffffffffffffffffffffffff167feb3b1a3d7cb40eb776aa49d32c1464b66089216e7f07563a2592bbd1978a585a82601260003373ffffffffffffffffffffffffffffffffffffffff1673ffffffffffffffffffffffffffffffffffffffff1681526020019081526020016000205460405161148992919061332f565b60405180910390a25b50565b60055481565b600181565b6ec097ce7bc90715b34b9f100000000081565b60135481565b60116020528060005260406000206000915090505481565b600f6020528060005260406000206000915090505481565b600e5481565b60106020528060005260406000206000915090505481565b600080601160008473ffffffffffffffffffffffffffffffffffffffff1673ffffffffffffffffffffffffffffffffffffffff16815260200190815260200160002054905060008114801561155e57506000600d54145b15611576576ec097ce7bc90715b34b9f100000000090505b600081141561158557600a5490505b600061159c82600a54611f0d90919063ffffffff16565b9050600061160c670de0b6b3a76400006115fe601060008973ffffffffffffffffffffffffffffffffffffffff1673ffffffffffffffffffffffffffffffffffffffff1681526020019081526020016000205485611f5d90919063ffffffff16565b611fcd90919063ffffffff16565b9050809350505050919050565b6116216117e8565b73ffffffffffffffffffffffffffffffffffffffff1661163f610eb0565b73ffffffffffffffffffffffffffffffffffffffff1614611695576040517f08c379a000000000000000000000000000000000000000000000000000000000815260040161168c90613294565b60405180910390fd5b600073ffffffffffffffffffffffffffffffffffffffff168173ffffffffffffffffffffffffffffffffffffffff161415611705576040517f08c379a00000000000000000000000000000000000000000000000000000000081526004016116fc90613114565b60405180910390fd5b8073ffffffffffffffffffffffffffffffffffffffff1660008054906101000a900473ffffffffffffffffffffffffffffffffffffffff1673ffffffffffffffffffffffffffffffffffffffff167f8be0079c531659141344cd1fd0a4f28419497f9722a3daafe3b4186f6b6457e060405160405180910390a3806000806101000a81548173ffffffffffffffffffffffffffffffffffffffff021916908373ffffffffffffffffffffffffffffffffffffffff16021790555050565b600160009054906101000a900473ffffffffffffffffffffffffffffffffffffffff1681565b600033905090565b6117f8610b5e565b611837576040517f08c379a000000000000000000000000000000000000000000000000000000000815260040161182e906130f4565b60405180910390fd5b60008060146101000a81548160ff0219169083151502179055507f5db9ee0a495bf2e6ff9c91a7834c1ba4fdd244a5e8aa4e537bd38aeae4b073aa61187a6117e8565b6040516118879190612ffa565b60405180910390a1565b6118996111da565b60075443106118dd576040517f08c379a00000000000000000000000000000000000000000000000000000000081526004016118d4906130d4565b60405180910390fd5b60008114806118ee575062278d0081145b806118fb57506276a70081145b80611908575062ed4e0081145b8061191657506301da9c0081145b611955576040517f08c379a000000000000000000000000000000000000000000000000000000000815260040161194c906131f4565b60405180910390fd5b600360009054906101000a900473ffffffffffffffffffffffffffffffffffffffff1673ffffffffffffffffffffffffffffffffffffffff166323b872dd8430856040518463ffffffff167c01000000000000000000000000000000000000000000000000000000000281526004016119d09392919061303e565b602060405180830381600087803b1580156119ea57600080fd5b505af11580156119fe573d6000803e3d6000fd5b505050506040513d601f19601f82011682018060405250810190611a22919061294e565b611a61576040517f08c379a0000000000000000000000000000000000000000000000000000000008152600401611a5890613174565b60405180910390fd5b6000611a76824261202390919063ffffffff16565b90506000806000841415611a8d5760019150611ade565b62278d00841415611aa15760029150611add565b6276a700841415611ab55760039150611adc565b62ed4e00841415611ac95760049150611adb565b6301da9c00841415611ada57600591505b5b5b5b5b611af18286611f5d90919063ffffffff16565b9050611afb61284f565b6040518060a00160405280878152602001858152602001868152602001838152602001600115158152509050600b60008873ffffffffffffffffffffffffffffffffffffffff1673ffffffffffffffffffffffffffffffffffffffff1681526020019081526020016000208190806001815401808255809150506001900390600052602060002090600502016000909190919091506000820151816000015560208201518160010155604082015181600201556060820151816003015560808201518160040160006101000a81548160ff0219169083151502179055505050611c2d6001600c60008a73ffffffffffffffffffffffffffffffffffffffff1673ffffffffffffffffffffffffffffffffffffffff1681526020019081526020016000205461202390919063ffffffff16565b600c60008973ffffffffffffffffffffffffffffffffffffffff1673ffffffffffffffffffffffffffffffffffffffff16815260200190815260200160002081905550611cc282601060008a73ffffffffffffffffffffffffffffffffffffffff1673ffffffffffffffffffffffffffffffffffffffff1681526020019081526020016000205461202390919063ffffffff16565b601060008973ffffffffffffffffffffffffffffffffffffffff1673ffffffffffffffffffffffffffffffffffffffff16815260200190815260200160002081905550611d5786600f60008a73ffffffffffffffffffffffffffffffffffffffff1673ffffffffffffffffffffffffffffffffffffffff1681526020019081526020016000205461202390919063ffffffff16565b600f60008973ffffffffffffffffffffffffffffffffffffffff1673ffffffffffffffffffffffffffffffffffffffff16815260200190815260200160002081905550611daf86600d5461202390919063ffffffff16565b600d81905550611dca82600e5461202390919063ffffffff16565b600e819055508673ffffffffffffffffffffffffffffffffffffffff167fb4caaf29adda3eefee3ad552a8e85058589bf834c7466cae4ee58787f70589ed87600f60008b73ffffffffffffffffffffffffffffffffffffffff1673ffffffffffffffffffffffffffffffffffffffff1681526020019081526020016000205487604051611e5993929190613358565b60405180910390a250505050505050565b611e72610b5e565b15611eb2576040517f08c379a0000000000000000000000000000000000000000000000000000000008152600401611ea9906131d4565b60405180910390fd5b6001600060146101000a81548160ff0219169083151502179055507f62e78cea01bee320cd4e420270b5ea74000d11b0c9f74754ebdbfc544b05a258611ef66117e8565b604051611f039190612ffa565b60405180910390a1565b600082821115611f52576040517f08c379a0000000000000000000000000000000000000000000000000000000008152600401611f4990613194565b60405180910390fd5b818303905092915050565b600080831415611f705760009050611fc7565b6000828402905082848281611f8157fe5b0414611fc2576040517f08c379a0000000000000000000000000000000000000000000000000000000008152600401611fb990613274565b60405180910390fd5b809150505b92915050565b6000808211612011576040517f08c379a0000000000000000000000000000000000000000000000000000000008152600401612008906131b4565b60405180910390fd5b81838161201a57fe5b04905092915050565b60008082840190508381101561206e576040517f08c379a000000000000000000000000000000000000000000000000000000000815260040161206590613154565b60405180910390fd5b8091505092915050565b6120806111da565b60075443116121285742600b60008473ffffffffffffffffffffffffffffffffffffffff1673ffffffffffffffffffffffffffffffffffffffff16815260200190815260200160002082815481106120d457fe5b9060005260206000209060050201600101541115612127576040517f08c379a000000000000000000000000000000000000000000000000000000000815260040161211e90613254565b60405180910390fd5b5b6000600b60008473ffffffffffffffffffffffffffffffffffffffff1673ffffffffffffffffffffffffffffffffffffffff168152602001908152602001600020828154811061217457fe5b90600052602060002090600502016000015490506000600b60008573ffffffffffffffffffffffffffffffffffffffff1673ffffffffffffffffffffffffffffffffffffffff16815260200190815260200160002083815481106121d457fe5b9060005260206000209060050201600301549050600f60008573ffffffffffffffffffffffffffffffffffffffff1673ffffffffffffffffffffffffffffffffffffffff1681526020019081526020016000205482111561227257600f60008573ffffffffffffffffffffffffffffffffffffffff1673ffffffffffffffffffffffffffffffffffffffff1681526020019081526020016000205491505b600360009054906101000a900473ffffffffffffffffffffffffffffffffffffffff1673ffffffffffffffffffffffffffffffffffffffff1663a9059cbb85846040518363ffffffff167c01000000000000000000000000000000000000000000000000000000000281526004016122eb929190613075565b602060405180830381600087803b15801561230557600080fd5b505af1158015612319573d6000803e3d6000fd5b505050506040513d601f19601f8201168201806040525081019061233d919061294e565b61237c576040517f08c379a000000000000000000000000000000000000000000000000000000000815260040161237390613134565b60405180910390fd5b612386848461264a565b6123d96001600c60008773ffffffffffffffffffffffffffffffffffffffff1673ffffffffffffffffffffffffffffffffffffffff16815260200190815260200160002054611f0d90919063ffffffff16565b600c60008673ffffffffffffffffffffffffffffffffffffffff1673ffffffffffffffffffffffffffffffffffffffff1681526020019081526020016000208190555061246e81601060008773ffffffffffffffffffffffffffffffffffffffff1673ffffffffffffffffffffffffffffffffffffffff16815260200190815260200160002054611f0d90919063ffffffff16565b601060008673ffffffffffffffffffffffffffffffffffffffff1673ffffffffffffffffffffffffffffffffffffffff168152602001908152602001600020819055506124c681600e54611f0d90919063ffffffff16565b600e8190555061251e82600f60008773ffffffffffffffffffffffffffffffffffffffff1673ffffffffffffffffffffffffffffffffffffffff16815260200190815260200160002054611f0d90919063ffffffff16565b600f60008673ffffffffffffffffffffffffffffffffffffffff1673ffffffffffffffffffffffffffffffffffffffff1681526020019081526020016000208190555061257682600d54611f0d90919063ffffffff16565b600d81905550612584612619565b8373ffffffffffffffffffffffffffffffffffffffff167f7fc4727e062e336010f2c282598ef5f14facb3de68cf8195c2f23e1454b2b74e83600f60008873ffffffffffffffffffffffffffffffffffffffff1673ffffffffffffffffffffffffffffffffffffffff1681526020019081526020016000205460405161260b92919061332f565b60405180910390a250505050565b600754600954141561262a57612648565b61263343610d9d565b600a6000600960008491905055839190505550505b565b60008190505b6001600b60008573ffffffffffffffffffffffffffffffffffffffff1673ffffffffffffffffffffffffffffffffffffffff16815260200190815260200160002080549050038110156127b557600b60008473ffffffffffffffffffffffffffffffffffffffff1673ffffffffffffffffffffffffffffffffffffffff16815260200190815260200160002060018201815481106126ea57fe5b9060005260206000209060050201600b60008573ffffffffffffffffffffffffffffffffffffffff1673ffffffffffffffffffffffffffffffffffffffff168152602001908152602001600020828154811061274257fe5b9060005260206000209060050201600082015481600001556001820154816001015560028201548160020155600382015481600301556004820160009054906101000a900460ff168160040160006101000a81548160ff0219169083151502179055509050508080600101915050612650565b50600b60008373ffffffffffffffffffffffffffffffffffffffff1673ffffffffffffffffffffffffffffffffffffffff1681526020019081526020016000208054806127fe57fe5b60019003818190600052602060002090600502016000808201600090556001820160009055600282016000905560038201600090556004820160006101000a81549060ff0219169055505090555050565b6040518060a00160405280600081526020016000815260200160008152602001600081526020016000151581525090565b60008135905061288f816134a7565b92915050565b6000815190506128a4816134be565b92915050565b6000813590506128b9816134d5565b92915050565b6000813590506128ce816134ec565b92915050565b6000815190506128e3816134ec565b92915050565b6000602082840312156128fb57600080fd5b600061290984828501612880565b91505092915050565b6000806040838503121561292557600080fd5b600061293385828601612880565b9250506020612944858286016128bf565b9150509250929050565b60006020828403121561296057600080fd5b600061296e84828501612895565b91505092915050565b60006020828403121561298957600080fd5b6000612997848285016128bf565b91505092915050565b6000602082840312156129b257600080fd5b60006129c0848285016128d4565b91505092915050565b600080604083850312156129dc57600080fd5b60006129ea858286016128bf565b92505060206129fb858286016128bf565b9150509250929050565b600080600080600060a08688031215612a1d57600080fd5b6000612a2b888289016128bf565b9550506020612a3c888289016128bf565b9450506040612a4d888289016128bf565b9350506060612a5e888289016128aa565b9250506080612a6f888289016128aa565b9150509295509295909350565b612a858161344d565b82525050565b612a94816133f3565b82525050565b612aa381613405565b82525050565b612ab28161345f565b82525050565b6000612ac56018836133e2565b91507f7374616b696e6720706572696f642068617320656e64656400000000000000006000830152602082019050919050565b6000612b056014836133e2565b91507f5061757361626c653a206e6f74207061757365640000000000000000000000006000830152602082019050919050565b6000612b456026836133e2565b91507f4f776e61626c653a206e6577206f776e657220697320746865207a65726f206160008301527f64647265737300000000000000000000000000000000000000000000000000006020830152604082019050919050565b6000612bab6018836133e2565b91507f556e61626c6520746f207769746864726177207374616b6500000000000000006000830152602082019050919050565b6000612beb601b836133e2565b91507f536166654d6174683a206164646974696f6e206f766572666c6f7700000000006000830152602082019050919050565b6000612c2b600e836133e2565b91507f5374616b652072657175697265640000000000000000000000000000000000006000830152602082019050919050565b6000612c6b601e836133e2565b91507f536166654d6174683a207375627472616374696f6e206f766572666c6f7700006000830152602082019050919050565b6000612cab601a836133e2565b91507f536166654d6174683a206469766973696f6e206279207a65726f0000000000006000830152602082019050919050565b6000612ceb6010836133e2565b91507f5061757361626c653a20706175736564000000000000000000000000000000006000830152602082019050919050565b6000612d2b6015836133e2565b91507f696e76616c6964206c6f636b656420706572696f6400000000000000000000006000830152602082019050919050565b6000612d6b601a836133e2565b91507f7374616b6520616d6f756e7420646f65736e2774206d617463680000000000006000830152602082019050919050565b6000612dab601d836133e2565b91507f636f6e747261637420697320616c726561647920696e697469617465640000006000830152602082019050919050565b6000612deb6019836133e2565b91507f746865207374616b65206973207374696c6c206c6f636b6564000000000000006000830152602082019050919050565b6000612e2b6021836133e2565b91507f536166654d6174683a206d756c7469706c69636174696f6e206f766572666c6f60008301527f77000000000000000000000000000000000000000000000000000000000000006020830152604082019050919050565b6000612e916020836133e2565b91507f4f776e61626c653a2063616c6c6572206973206e6f7420746865206f776e65726000830152602082019050919050565b6000612ed16019836133e2565b91507f7374616b6520696e64657820646f65736e2774206578697374000000000000006000830152602082019050919050565b6000612f116025836133e2565b91507f5f626c6f636b4e756d206d757374206265203e3d206d696e696e67537461746560008301527f426c6f636b0000000000000000000000000000000000000000000000000000006020830152604082019050919050565b6000612f776021836133e2565b91507f5f746f74616c4d696e696e67426c6f636b4e756d20697320746f6f20736d616c60008301527f6c000000000000000000000000000000000000000000000000000000000000006020830152604082019050919050565b612fd981613443565b82525050565b6000602082019050612ff46000830184612a8b565b92915050565b600060208201905061300f6000830184612a7c565b92915050565b600060408201905061302a6000830185612a7c565b6130376020830184612fd0565b9392505050565b60006060820190506130536000830186612a8b565b6130606020830185612a8b565b61306d6040830184612fd0565b949350505050565b600060408201905061308a6000830185612a8b565b6130976020830184612fd0565b9392505050565b60006020820190506130b36000830184612a9a565b92915050565b60006020820190506130ce6000830184612aa9565b92915050565b600060208201905081810360008301526130ed81612ab8565b9050919050565b6000602082019050818103600083015261310d81612af8565b9050919050565b6000602082019050818103600083015261312d81612b38565b9050919050565b6000602082019050818103600083015261314d81612b9e565b9050919050565b6000602082019050818103600083015261316d81612bde565b9050919050565b6000602082019050818103600083015261318d81612c1e565b9050919050565b600060208201905081810360008301526131ad81612c5e565b9050919050565b600060208201905081810360008301526131cd81612c9e565b9050919050565b600060208201905081810360008301526131ed81612cde565b9050919050565b6000602082019050818103600083015261320d81612d1e565b9050919050565b6000602082019050818103600083015261322d81612d5e565b9050919050565b6000602082019050818103600083015261324d81612d9e565b9050919050565b6000602082019050818103600083015261326d81612dde565b9050919050565b6000602082019050818103600083015261328d81612e1e565b9050919050565b600060208201905081810360008301526132ad81612e84565b9050919050565b600060208201905081810360008301526132cd81612ec4565b9050919050565b600060208201905081810360008301526132ed81612f04565b9050919050565b6000602082019050818103600083015261330d81612f6a565b9050919050565b60006020820190506133296000830184612fd0565b92915050565b60006040820190506133446000830185612fd0565b6133516020830184612fd0565b9392505050565b600060608201905061336d6000830186612fd0565b61337a6020830185612fd0565b6133876040830184612fd0565b949350505050565b600060a0820190506133a46000830188612fd0565b6133b16020830187612fd0565b6133be6040830186612fd0565b6133cb6060830185612fd0565b6133d86080830184612a9a565b9695505050505050565b600082825260208201905092915050565b60006133fe82613423565b9050919050565b60008115159050919050565b600061341c826133f3565b9050919050565b600073ffffffffffffffffffffffffffffffffffffffff82169050919050565b6000819050919050565b600061345882613483565b9050919050565b600061346a82613471565b9050919050565b600061347c82613423565b9050919050565b600061348e82613495565b9050919050565b60006134a082613423565b9050919050565b6134b0816133f3565b81146134bb57600080fd5b50565b6134c781613405565b81146134d257600080fd5b50565b6134de81613411565b81146134e957600080fd5b50565b6134f581613443565b811461350057600080fd5b5056fea26469706673582212204a6877aea84c3f89a357465ceb7294df218f46bbfdfaaeeeb9c4a7cf24bc78f364736f6c634300060c0033",
  "immutableReferences": {},
  "source": "//SPDX-License-Identifier: MIT\r\n\r\npragma solidity ^0.6.0;\r\npragma experimental ABIEncoderV2;\r\n\r\nimport \"@openzeppelin/contracts/access/Ownable.sol\";\r\nimport \"@openzeppelin/contracts/utils/Pausable.sol\";\r\nimport \"./MVTUniswapMiningStorage.sol\";\r\n\r\n \r\ncontract MVTUniswapMining is Ownable, Pausable, MVTUniswapMiningStorage {\r\n  \r\n  event Staked(address indexed user, uint256 amount, uint256 total, uint256 lockedUntil);\r\n  event Unstaked(address indexed user, uint256 amount, uint256 total);\r\n  event ClaimedMVT(address indexed user, uint amount, uint total);\r\n\r\n  function initiate(uint _startMiningBlocknum, uint _totalMiningBlockNum, uint _MVTPerBlock, ERC20 _MVT, ERC20 _lp) public onlyOwner{\r\n    require(initiated==false, \"contract is already initiated\");\r\n    initiated = true;\r\n\r\n    require(_totalMiningBlockNum >= 100, \"_totalMiningBlockNum is too small\");\r\n\r\n    if(_startMiningBlocknum == 0){\r\n      _startMiningBlocknum = block.number;\r\n    }\r\n\r\n    _MVT.totalSupply(); //sanity check\r\n    _lp.totalSupply(); //sanity check\r\n\r\n    startMiningBlockNum = _startMiningBlocknum;\r\n    totalMiningBlockNum = _totalMiningBlockNum;\r\n    endMiningBlockNum = startMiningBlockNum + totalMiningBlockNum;\r\n    miningStateBlock = startMiningBlockNum;\r\n    MVTPerBlock = _MVTPerBlock;\r\n    MVTToken = _MVT;\r\n    LPToken = _lp;\r\n\r\n  }\r\n\r\n  // @notice stake some LP tokens\r\n  // @param _amount some amount of LP tokens, requires enought allowance from LP token smart contract\r\n  // @param _locked the locking period; option: 0, 30 days (2592000), 90 days (7776000), 180 days (15552000), 360 days (31104000)\r\n  function stake(uint256 _amount, uint256 _locked) public whenNotPaused{\r\n      \r\n      createStake(msg.sender, _amount, _locked);\r\n  }\r\n  \r\n  // @notice internal function for staking\r\n  function createStake(\r\n    address _address,\r\n    uint256 _amount,\r\n    uint256 _locked\r\n  )\r\n    internal\r\n  {\r\n\r\n    claimMVT();\r\n    \r\n    require(block.number<endMiningBlockNum, \"staking period has ended\");\r\n    require(_locked == 0 || _locked == 30 days || _locked == 90 days || _locked == 180 days || _locked == 360 days  , \"invalid locked period\" );\r\n      \r\n    require(\r\n      LPToken.transferFrom(_address, address(this), _amount),\r\n      \"Stake required\");\r\n\r\n    uint _lockedUntil = block.timestamp.add(_locked);\r\n    uint _powerRatio;\r\n    uint _power;\r\n\r\n    if(_locked == 0){\r\n        _powerRatio = 1;\r\n    } else if(_locked == 30 days){\r\n        _powerRatio = 2;\r\n    } else if(_locked == 90 days){\r\n        _powerRatio = 3;\r\n    } else if(_locked == 180 days){\r\n        _powerRatio = 4;\r\n    } else if(_locked == 360 days){\r\n        _powerRatio = 5;\r\n    }\r\n\r\n    _power = _amount.mul(_powerRatio);\r\n\r\n    Stake memory _stake = Stake(_amount, _lockedUntil, _locked, _power, true);\r\n    stakes[_address].push(_stake);\r\n    stakeCount[_address] = stakeCount[_address].add(1);\r\n    stakerPower[_address] = stakerPower[_address].add(_power);\r\n\r\n    stakeHolders[_address] = stakeHolders[_address].add(_amount);\r\n    totalStaked = totalStaked.add(_amount);\r\n    totalStakedPower = totalStakedPower.add(_power);\r\n\r\n    emit Staked(\r\n      _address,\r\n      _amount,\r\n      stakeHolders[_address],\r\n      _lockedUntil);\r\n  }\r\n  \r\n  // @notice unstake LP token\r\n  // @param _index the index of stakes array\r\n  function unstake(uint256 _index, uint256 _amount) public whenNotPaused{\r\n\r\n    require(stakes[msg.sender][_index].exists == true, \"stake index doesn't exist\");\r\n    require(stakes[msg.sender][_index].amount == _amount, \"stake amount doesn't match\");\r\n\r\n    withdrawStake(msg.sender, _index);\r\n      \r\n  }\r\n\r\n  // @notice internal function for removing stake and reorder the array\r\n  function removeStake(address _address, uint index) internal {\r\n      for (uint i = index; i < stakes[_address].length-1; i++) {\r\n          stakes[_address][i] = stakes[_address][i+1];\r\n      }\r\n      stakes[_address].pop();\r\n  }\r\n  \r\n  // @notice internal function for unstaking\r\n  function withdrawStake(\r\n    address _address,\r\n    uint256 _index\r\n  )\r\n    internal\r\n  {\r\n\r\n    claimMVT();\r\n\r\n    if(block.number <= endMiningBlockNum){ //if current block is lower than endMiningBlockNum, check lockedUntil\r\n      require(stakes[_address][_index].lockedUntil <= block.timestamp, \"the stake is still locked\");\r\n    }\r\n\r\n    uint _amount = stakes[_address][_index].amount;\r\n    uint _power = stakes[_address][_index].stakePower;\r\n\r\n    if(_amount > stakeHolders[_address]){ //if amount is larger than owned\r\n      _amount = stakeHolders[_address];\r\n    }\r\n\r\n    require(\r\n      LPToken.transfer(_address, _amount),\r\n      \"Unable to withdraw stake\");\r\n    \r\n    removeStake(_address, _index);\r\n    stakeCount[_address] = stakeCount[_address].sub(1);\r\n    \r\n    stakerPower[_address] = stakerPower[_address].sub(_power);\r\n    totalStakedPower = totalStakedPower.sub(_power);\r\n    stakeHolders[_address] = stakeHolders[_address].sub(_amount);\r\n    totalStaked = totalStaked.sub(_amount);\r\n\r\n    updateMiningState();\r\n\r\n    emit Unstaked(\r\n      _address,\r\n      _amount,\r\n      stakeHolders[_address]);\r\n  }\r\n  \r\n  // @notice internal function for updating mining state\r\n  function updateMiningState() internal{\r\n    \r\n    if(miningStateBlock == endMiningBlockNum){ //if miningStateBlock is already the end of program, dont update state\r\n        return;\r\n    }\r\n    \r\n    (miningStateIndex, miningStateBlock) = getMiningState(block.number);\r\n    \r\n  }\r\n  \r\n  // @notice calculate current mining state\r\n  function getMiningState(uint _blockNum) public view returns(uint, uint){\r\n\r\n    require(_blockNum >= miningStateBlock, \"_blockNum must be >= miningStateBlock\");\r\n      \r\n    uint blockNumber = _blockNum;\r\n      \r\n    if(_blockNum>endMiningBlockNum){ //if current block.number is bigger than the end of program, only update the state to endMiningBlockNum\r\n        blockNumber = endMiningBlockNum;   \r\n    }\r\n      \r\n    uint deltaBlocks = blockNumber.sub(miningStateBlock);\r\n    \r\n    uint _miningStateBlock = miningStateBlock;\r\n    uint _miningStateIndex = miningStateIndex;\r\n    \r\n    if (deltaBlocks > 0 && totalStaked > 0) {\r\n        uint MVTAccrued = deltaBlocks.mul(MVTPerBlock);\r\n        uint ratio = MVTAccrued.mul(1e18).div(totalStakedPower); //multiple ratio to 1e18 to prevent rounding error\r\n        _miningStateIndex = miningStateIndex.add(ratio); //index is 1e18 precision\r\n        _miningStateBlock = blockNumber;\r\n    } \r\n    \r\n    return (_miningStateIndex, _miningStateBlock);\r\n    \r\n  }\r\n  \r\n  // @notice claim MVT based on current state \r\n  function claimMVT() public whenNotPaused {\r\n      \r\n      updateMiningState();\r\n      \r\n      uint claimableMVT = claimableMVT(msg.sender);\r\n      \r\n      stakerIndexes[msg.sender] = miningStateIndex;\r\n      \r\n      if(claimableMVT > 0){\r\n          \r\n          stakerClaimed[msg.sender] = stakerClaimed[msg.sender].add(claimableMVT);\r\n          totalClaimed = totalClaimed.add(claimableMVT);\r\n          MVTToken.transfer(msg.sender, claimableMVT);\r\n          emit ClaimedMVT(msg.sender, claimableMVT, stakerClaimed[msg.sender]);\r\n          \r\n      }\r\n  }\r\n  \r\n  // @notice calculate claimable MVT based on current state\r\n  function claimableMVT(address _address) public view returns(uint){\r\n      uint stakerIndex = stakerIndexes[_address];\r\n        \r\n        // if it's the first stake for user and the first stake for entire mining program, set stakerIndex as stakeInitialIndex\r\n        if (stakerIndex == 0 && totalStaked == 0) {\r\n            stakerIndex = stakeInitialIndex;\r\n        }\r\n        \r\n        //else if it's the first stake for user, set stakerIndex as current miningStateIndex\r\n        if(stakerIndex == 0){\r\n            stakerIndex = miningStateIndex;\r\n        }\r\n      \r\n      uint deltaIndex = miningStateIndex.sub(stakerIndex);\r\n      uint MVTDelta = deltaIndex.mul(stakerPower[_address]).div(1e18);\r\n      \r\n      return MVTDelta;\r\n          \r\n  }\r\n\r\n    // @notice test function\r\n    function doNothing() public{\r\n    }\r\n\r\n    /*======== admin functions =========*/\r\n\r\n    // @notice admin function to pause the contract\r\n    function pause() public onlyOwner{\r\n      _pause();\r\n    }\r\n\r\n    // @notice admin function to unpause the contract\r\n    function unpause() public onlyOwner{\r\n      _unpause();\r\n    }\r\n\r\n    // @notice admin function to send MVT to external address, for emergency use\r\n    function sendMVT(address _to, uint _amount) public onlyOwner{\r\n      MVTToken.transfer(_to, _amount);\r\n    }\r\n    \r\n}\r\n",
  "sourcePath": "C:/Users/Josh Erickson/Documents/GitHub/LPStaking/contracts/MVTUniswapMining.sol",
  "compiler": {
    "name": "solc",
    "version": "0.6.12+commit.27d51765.Emscripten.clang"
  },
  "schemaVersion": "3.3.4",
  "updatedAt": "2021-02-28T23:28:49.303Z",
  "networkType": "ethereum",
  "devdoc": {
    "kind": "dev",
    "methods": {
      "owner()": {
        "details": "Returns the address of the current owner."
      },
      "paused()": {
        "details": "Returns true if the contract is paused, and false otherwise."
      },
      "renounceOwnership()": {
        "details": "Leaves the contract without owner. It will not be possible to call `onlyOwner` functions anymore. Can only be called by the current owner. NOTE: Renouncing ownership will leave the contract without an owner, thereby removing any functionality that is only available to the owner."
      },
      "transferOwnership(address)": {
        "details": "Transfers ownership of the contract to a new account (`newOwner`). Can only be called by the current owner."
      }
    },
    "version": 1
  },
  "userdoc": {
    "kind": "user",
    "methods": {},
    "version": 1
  }
}