{
  "contractName": "MVTUniswapMiningProxy",
  "abi": [
    {
      "inputs": [
        {
          "internalType": "contract MVTUniswapMining",
          "name": "newImplementation",
          "type": "address"
        }
      ],
      "stateMutability": "nonpayable",
      "type": "constructor"
    },
    {
      "anonymous": false,
      "inputs": [
        {
          "indexed": false,
          "internalType": "address",
          "name": "oldAdmin",
          "type": "address"
        },
        {
          "indexed": false,
          "internalType": "address",
          "name": "newAdmin",
          "type": "address"
        }
      ],
      "name": "NewAdmin",
      "type": "event"
    },
    {
      "anonymous": false,
      "inputs": [
        {
          "indexed": false,
          "internalType": "address",
          "name": "oldImplementation",
          "type": "address"
        },
        {
          "indexed": false,
          "internalType": "address",
          "name": "newImplementation",
          "type": "address"
        }
      ],
      "name": "NewImplementation",
      "type": "event"
    },
    {
      "stateMutability": "nonpayable",
      "type": "fallback"
    },
    {
      "inputs": [],
      "name": "LPToken",
      "outputs": [
        {
          "internalType": "contract ERC20",
          "name": "",
          "type": "address"
        }
      ],
      "stateMutability": "view",
      "type": "function",
      "constant": true
    },
    {
      "inputs": [],
      "name": "MVTPerBlock",
      "outputs": [
        {
          "internalType": "uint256",
          "name": "",
          "type": "uint256"
        }
      ],
      "stateMutability": "view",
      "type": "function",
      "constant": true
    },
    {
      "inputs": [],
      "name": "MVTToken",
      "outputs": [
        {
          "internalType": "contract ERC20",
          "name": "",
          "type": "address"
        }
      ],
      "stateMutability": "view",
      "type": "function",
      "constant": true
    },
    {
      "inputs": [],
      "name": "admin",
      "outputs": [
        {
          "internalType": "address",
          "name": "",
          "type": "address"
        }
      ],
      "stateMutability": "view",
      "type": "function",
      "constant": true
    },
    {
      "inputs": [],
      "name": "endMiningBlockNum",
      "outputs": [
        {
          "internalType": "uint256",
          "name": "",
          "type": "uint256"
        }
      ],
      "stateMutability": "view",
      "type": "function",
      "constant": true
    },
    {
      "inputs": [],
      "name": "implementation",
      "outputs": [
        {
          "internalType": "address",
          "name": "",
          "type": "address"
        }
      ],
      "stateMutability": "view",
      "type": "function",
      "constant": true
    },
    {
      "inputs": [],
      "name": "initiated",
      "outputs": [
        {
          "internalType": "bool",
          "name": "",
          "type": "bool"
        }
      ],
      "stateMutability": "view",
      "type": "function",
      "constant": true
    },
    {
      "inputs": [],
      "name": "isMVTUniswapMining",
      "outputs": [
        {
          "internalType": "bool",
          "name": "",
          "type": "bool"
        }
      ],
      "stateMutability": "view",
      "type": "function",
      "constant": true
    },
    {
      "inputs": [],
      "name": "miningStateBlock",
      "outputs": [
        {
          "internalType": "uint256",
          "name": "",
          "type": "uint256"
        }
      ],
      "stateMutability": "view",
      "type": "function",
      "constant": true
    },
    {
      "inputs": [],
      "name": "miningStateIndex",
      "outputs": [
        {
          "internalType": "uint256",
          "name": "",
          "type": "uint256"
        }
      ],
      "stateMutability": "view",
      "type": "function",
      "constant": true
    },
    {
      "inputs": [
        {
          "internalType": "address",
          "name": "",
          "type": "address"
        }
      ],
      "name": "stakeCount",
      "outputs": [
        {
          "internalType": "uint256",
          "name": "",
          "type": "uint256"
        }
      ],
      "stateMutability": "view",
      "type": "function",
      "constant": true
    },
    {
      "inputs": [
        {
          "internalType": "address",
          "name": "",
          "type": "address"
        }
      ],
      "name": "stakeHolders",
      "outputs": [
        {
          "internalType": "uint256",
          "name": "",
          "type": "uint256"
        }
      ],
      "stateMutability": "view",
      "type": "function",
      "constant": true
    },
    {
      "inputs": [],
      "name": "stakeInitialIndex",
      "outputs": [
        {
          "internalType": "uint256",
          "name": "",
          "type": "uint256"
        }
      ],
      "stateMutability": "view",
      "type": "function",
      "constant": true
    },
    {
      "inputs": [
        {
          "internalType": "address",
          "name": "",
          "type": "address"
        }
      ],
      "name": "stakerClaimed",
      "outputs": [
        {
          "internalType": "uint256",
          "name": "",
          "type": "uint256"
        }
      ],
      "stateMutability": "view",
      "type": "function",
      "constant": true
    },
    {
      "inputs": [
        {
          "internalType": "address",
          "name": "",
          "type": "address"
        }
      ],
      "name": "stakerIndexes",
      "outputs": [
        {
          "internalType": "uint256",
          "name": "",
          "type": "uint256"
        }
      ],
      "stateMutability": "view",
      "type": "function",
      "constant": true
    },
    {
      "inputs": [
        {
          "internalType": "address",
          "name": "",
          "type": "address"
        }
      ],
      "name": "stakerPower",
      "outputs": [
        {
          "internalType": "uint256",
          "name": "",
          "type": "uint256"
        }
      ],
      "stateMutability": "view",
      "type": "function",
      "constant": true
    },
    {
      "inputs": [
        {
          "internalType": "address",
          "name": "",
          "type": "address"
        },
        {
          "internalType": "uint256",
          "name": "",
          "type": "uint256"
        }
      ],
      "name": "stakes",
      "outputs": [
        {
          "internalType": "uint256",
          "name": "amount",
          "type": "uint256"
        },
        {
          "internalType": "uint256",
          "name": "lockedUntil",
          "type": "uint256"
        },
        {
          "internalType": "uint256",
          "name": "lockPeriod",
          "type": "uint256"
        },
        {
          "internalType": "uint256",
          "name": "stakePower",
          "type": "uint256"
        },
        {
          "internalType": "bool",
          "name": "exists",
          "type": "bool"
        }
      ],
      "stateMutability": "view",
      "type": "function",
      "constant": true
    },
    {
      "inputs": [],
      "name": "startMiningBlockNum",
      "outputs": [
        {
          "internalType": "uint256",
          "name": "",
          "type": "uint256"
        }
      ],
      "stateMutability": "view",
      "type": "function",
      "constant": true
    },
    {
      "inputs": [],
      "name": "totalClaimed",
      "outputs": [
        {
          "internalType": "uint256",
          "name": "",
          "type": "uint256"
        }
      ],
      "stateMutability": "view",
      "type": "function",
      "constant": true
    },
    {
      "inputs": [],
      "name": "totalMiningBlockNum",
      "outputs": [
        {
          "internalType": "uint256",
          "name": "",
          "type": "uint256"
        }
      ],
      "stateMutability": "view",
      "type": "function",
      "constant": true
    },
    {
      "inputs": [],
      "name": "totalStaked",
      "outputs": [
        {
          "internalType": "uint256",
          "name": "",
          "type": "uint256"
        }
      ],
      "stateMutability": "view",
      "type": "function",
      "constant": true
    },
    {
      "inputs": [],
      "name": "totalStakedPower",
      "outputs": [
        {
          "internalType": "uint256",
          "name": "",
          "type": "uint256"
        }
      ],
      "stateMutability": "view",
      "type": "function",
      "constant": true
    },
    {
      "inputs": [
        {
          "internalType": "contract MVTUniswapMining",
          "name": "newImplementation",
          "type": "address"
        }
      ],
      "name": "_setImplementation",
      "outputs": [],
      "stateMutability": "nonpayable",
      "type": "function"
    },
    {
      "inputs": [
        {
          "internalType": "address",
          "name": "newAdmin",
          "type": "address"
        }
      ],
      "name": "_setAdmin",
      "outputs": [],
      "stateMutability": "nonpayable",
      "type": "function"
    }
  ],
  "bytecode": "0x608060405260008060156101000a81548160ff021916908315150217905550600060055562249f00600655600654600554016007556701280f39a34855556008556005546009556ec097ce7bc90715b34b9f1000000000600a5534801561006557600080fd5b506040516110a53803806110a58339818101604052602081101561008857600080fd5b810190808051906020019092919050505033600160006101000a81548173ffffffffffffffffffffffffffffffffffffffff021916908373ffffffffffffffffffffffffffffffffffffffff160217905550336000806101000a81548173ffffffffffffffffffffffffffffffffffffffff021916908373ffffffffffffffffffffffffffffffffffffffff160217905550600115158173ffffffffffffffffffffffffffffffffffffffff1663adcec9c56040518163ffffffff167c010000000000000000000000000000000000000000000000000000000002815260040160206040518083038186803b15801561018057600080fd5b505afa158015610194573d6000803e3d6000fd5b505050506040513d60208110156101aa57600080fd5b8101908080519060200190929190505050151514610230576040517f08c379a00000000000000000000000000000000000000000000000000000000081526004018080602001828103825260168152602001807f696e76616c696420696d706c656d656e746174696f6e0000000000000000000081525060200191505060405180910390fd5b80600260006101000a81548173ffffffffffffffffffffffffffffffffffffffff021916908373ffffffffffffffffffffffffffffffffffffffff1602179055507fd604de94d45953f9138079ec1b82d533cb2160c906d1076d1f7ed54befbca97a6000600260009054906101000a900473ffffffffffffffffffffffffffffffffffffffff16604051808373ffffffffffffffffffffffffffffffffffffffff1681526020018273ffffffffffffffffffffffffffffffffffffffff1681526020019250505060405180910390a150610d968061030f6000396000f3fe608060405234801561001057600080fd5b5060043610610179576000357c01000000000000000000000000000000000000000000000000000000009004806386b697db116100e0578063d54ad2a111610099578063d54ad2a1146105ae578063dd4785f5146105cc578063e26ff10a14610624578063e32a3b521461067c578063e8cc11591461069a578063f851a440146106f25761017a565b806386b697db146104d05780639f118536146104ee578063ad2a04e01461050e578063adcec9c51461052c578063bb913f411461054c578063c285c820146105905761017a565b80633a74a767116101325780633a74a7671461037e57806352d10e8e146103c2578063584b62a1146103e05780635c60da1b146104605780636456e66d14610494578063817b1cd2146104b25761017a565b8063011cee361461022a5780631c51c6911461025e5780631edb0d77146102925780631fb6ef1a146102b05780632604e18e146102ce57806333060d90146103265761017a565b5b6000600260009054906101000a900473ffffffffffffffffffffffffffffffffffffffff1673ffffffffffffffffffffffffffffffffffffffff16600036604051808383808284378083019250505092505050600060405180830381855af49150503d8060008114610208576040519150601f19603f3d011682016040523d82523d6000602084013e61020d565b606091505b505090506040513d6000823e8160008114610226573d82f35b3d82fd5b610232610726565b604051808273ffffffffffffffffffffffffffffffffffffffff16815260200191505060405180910390f35b61026661074c565b604051808273ffffffffffffffffffffffffffffffffffffffff16815260200191505060405180910390f35b61029a610772565b6040518082815260200191505060405180910390f35b6102b8610778565b6040518082815260200191505060405180910390f35b610310600480360360208110156102e457600080fd5b81019080803573ffffffffffffffffffffffffffffffffffffffff16906020019092919050505061077e565b6040518082815260200191505060405180910390f35b6103686004803603602081101561033c57600080fd5b81019080803573ffffffffffffffffffffffffffffffffffffffff169060200190929190505050610796565b6040518082815260200191505060405180910390f35b6103c06004803603602081101561039457600080fd5b81019080803573ffffffffffffffffffffffffffffffffffffffff1690602001909291905050506107ae565b005b6103ca610948565b6040518082815260200191505060405180910390f35b61042c600480360360408110156103f657600080fd5b81019080803573ffffffffffffffffffffffffffffffffffffffff1690602001909291908035906020019092919050505061094e565b6040518086815260200185815260200184815260200183815260200182151581526020019550505050505060405180910390f35b6104686109ab565b604051808273ffffffffffffffffffffffffffffffffffffffff16815260200191505060405180910390f35b61049c6109d1565b6040518082815260200191505060405180910390f35b6104ba6109d7565b6040518082815260200191505060405180910390f35b6104d86109dd565b6040518082815260200191505060405180910390f35b6104f66109e3565b60405180821515815260200191505060405180910390f35b6105166109f6565b6040518082815260200191505060405180910390f35b6105346109fc565b60405180821515815260200191505060405180910390f35b61058e6004803603602081101561056257600080fd5b81019080803573ffffffffffffffffffffffffffffffffffffffff169060200190929190505050610a01565b005b610598610cd3565b6040518082815260200191505060405180910390f35b6105b6610ce6565b6040518082815260200191505060405180910390f35b61060e600480360360208110156105e257600080fd5b81019080803573ffffffffffffffffffffffffffffffffffffffff169060200190929190505050610cec565b6040518082815260200191505060405180910390f35b6106666004803603602081101561063a57600080fd5b81019080803573ffffffffffffffffffffffffffffffffffffffff169060200190929190505050610d04565b6040518082815260200191505060405180910390f35b610684610d1c565b6040518082815260200191505060405180910390f35b6106dc600480360360208110156106b057600080fd5b81019080803573ffffffffffffffffffffffffffffffffffffffff169060200190929190505050610d22565b6040518082815260200191505060405180910390f35b6106fa610d3a565b604051808273ffffffffffffffffffffffffffffffffffffffff16815260200191505060405180910390f35b600360009054906101000a900473ffffffffffffffffffffffffffffffffffffffff1681565b600460009054906101000a900473ffffffffffffffffffffffffffffffffffffffff1681565b60085481565b60065481565b60126020528060005260406000206000915090505481565b600c6020528060005260406000206000915090505481565b600160009054906101000a900473ffffffffffffffffffffffffffffffffffffffff1673ffffffffffffffffffffffffffffffffffffffff163373ffffffffffffffffffffffffffffffffffffffff1614610871576040517f08c379a000000000000000000000000000000000000000000000000000000000815260040180806020018281038252600c8152602001807f554e415554484f52495a4544000000000000000000000000000000000000000081525060200191505060405180910390fd5b6000600160009054906101000a900473ffffffffffffffffffffffffffffffffffffffff16905081600160006101000a81548173ffffffffffffffffffffffffffffffffffffffff021916908373ffffffffffffffffffffffffffffffffffffffff1602179055507ff9ffabca9c8276e99321725bcb43fb076a6c66a54b7f21c4e8146d8519b417dc8183604051808373ffffffffffffffffffffffffffffffffffffffff1681526020018273ffffffffffffffffffffffffffffffffffffffff1681526020019250505060405180910390a15050565b60075481565b600b602052816000526040600020818154811061096757fe5b9060005260206000209060050201600091509150508060000154908060010154908060020154908060030154908060040160009054906101000a900460ff16905085565b600260009054906101000a900473ffffffffffffffffffffffffffffffffffffffff1681565b60095481565b600d5481565b600a5481565b600060159054906101000a900460ff1681565b60055481565b600181565b600160009054906101000a900473ffffffffffffffffffffffffffffffffffffffff1673ffffffffffffffffffffffffffffffffffffffff163373ffffffffffffffffffffffffffffffffffffffff1614610ac4576040517f08c379a000000000000000000000000000000000000000000000000000000000815260040180806020018281038252600c8152602001807f554e415554484f52495a4544000000000000000000000000000000000000000081525060200191505060405180910390fd5b600115158173ffffffffffffffffffffffffffffffffffffffff1663adcec9c56040518163ffffffff167c010000000000000000000000000000000000000000000000000000000002815260040160206040518083038186803b158015610b2a57600080fd5b505afa158015610b3e573d6000803e3d6000fd5b505050506040513d6020811015610b5457600080fd5b8101908080519060200190929190505050151514610bda576040517f08c379a00000000000000000000000000000000000000000000000000000000081526004018080602001828103825260168152602001807f696e76616c696420696d706c656d656e746174696f6e0000000000000000000081525060200191505060405180910390fd5b6000600260009054906101000a900473ffffffffffffffffffffffffffffffffffffffff16905081600260006101000a81548173ffffffffffffffffffffffffffffffffffffffff021916908373ffffffffffffffffffffffffffffffffffffffff1602179055507fd604de94d45953f9138079ec1b82d533cb2160c906d1076d1f7ed54befbca97a81600260009054906101000a900473ffffffffffffffffffffffffffffffffffffffff16604051808373ffffffffffffffffffffffffffffffffffffffff1681526020018273ffffffffffffffffffffffffffffffffffffffff1681526020019250505060405180910390a15050565b6ec097ce7bc90715b34b9f100000000081565b60135481565b60116020528060005260406000206000915090505481565b600f6020528060005260406000206000915090505481565b600e5481565b60106020528060005260406000206000915090505481565b600160009054906101000a900473ffffffffffffffffffffffffffffffffffffffff168156fea264697066735822122071737680b083d3c23fe289015823f1bce5c42e831c5056e5235c15fa081f640d64736f6c634300060c0033",
  "immutableReferences": {},
  "source": "//SPDX-License-Identifier: MIT\r\n\r\npragma solidity ^0.6.0;\r\n\r\nimport \"./MVTUniswapMining.sol\";\r\nimport \"./MVTUniswapMiningStorage.sol\";\r\n\r\ncontract MVTUniswapMiningProxy is OwnableStorage, PausableStorage, MVTUniswapMiningStorage {\r\n \r\n    event NewImplementation(address oldImplementation, address newImplementation);\r\n\r\n    event NewAdmin(address oldAdmin, address newAdmin);\r\n\r\n    constructor(MVTUniswapMining newImplementation) public {\r\n\r\n        admin = msg.sender;\r\n        _owner = msg.sender;\r\n\r\n        require(newImplementation.isMVTUniswapMining() == true, \"invalid implementation\");\r\n        implementation = address(newImplementation);\r\n\r\n        emit NewImplementation(address(0), implementation);\r\n    }\r\n\r\n    /*** Admin Functions ***/\r\n    function _setImplementation(MVTUniswapMining  newImplementation) public {\r\n\r\n        require(msg.sender==admin, \"UNAUTHORIZED\");\r\n\r\n        require(newImplementation.isMVTUniswapMining() == true, \"invalid implementation\");\r\n\r\n        address oldImplementation = implementation;\r\n\r\n        implementation = address(newImplementation);\r\n\r\n        emit NewImplementation(oldImplementation, implementation);\r\n\r\n    }\r\n\r\n\r\n    /**\r\n      * @notice Transfer of admin rights\r\n      * @dev Admin function to change admin\r\n      * @param newAdmin New admin.\r\n      */\r\n    function _setAdmin(address newAdmin) public {\r\n        // Check caller = admin\r\n        require(msg.sender==admin, \"UNAUTHORIZED\");\r\n\r\n        // Save current value, if any, for inclusion in log\r\n        address oldAdmin = admin;\r\n\r\n        admin = newAdmin;\r\n\r\n        emit NewAdmin(oldAdmin, newAdmin);\r\n\r\n    }\r\n\r\n    /**\r\n     * @dev Delegates execution to an implementation contract.\r\n     * It returns to the external caller whatever the implementation returns\r\n     * or forwards reverts.\r\n     */\r\n    fallback() external {\r\n        // delegate all other functions to current implementation\r\n        (bool success, ) = implementation.delegatecall(msg.data);\r\n\r\n        assembly {\r\n              let free_mem_ptr := mload(0x40)\r\n              returndatacopy(free_mem_ptr, 0, returndatasize())\r\n\r\n              switch success\r\n              case 0 { revert(free_mem_ptr, returndatasize()) }\r\n              default { return(free_mem_ptr, returndatasize()) }\r\n        }\r\n    }\r\n}\r\n",
  "sourcePath": "C:/Users/Josh Erickson/documents/github/lpstaking/contracts/MVTUniswapMiningProxy.sol",
  "compiler": {
    "name": "solc",
    "version": "0.6.12+commit.27d51765.Emscripten.clang"
  },
  "schemaVersion": "3.3.4",
  "updatedAt": "2021-03-04T01:13:52.974Z",
  "networkType": "ethereum",
  "devdoc": {
    "kind": "dev",
    "methods": {
      "_setAdmin(address)": {
        "details": "Admin function to change admin",
        "params": {
          "newAdmin": "New admin."
        }
      }
    },
    "version": 1
  },
  "userdoc": {
    "kind": "user",
    "methods": {
      "_setAdmin(address)": {
        "notice": "Transfer of admin rights"
      }
    },
    "version": 1
  }
}